{
  "transactions": [
    {
      "hash": "0x9d15b89b0d31ddf95b83bfba2e643803f1a1affa5d5c1857bd83fc22ca585760",
      "transactionType": "CALL",
      "contractName": null,
      "contractAddress": "0x1deed2c283b950439e1afe726aeb7ee257e6aa41",
      "function": "registerBatch(uint8,uint256,string,uint8,string,int256,int256)",
      "arguments": [
        "0",
        "500000",
        "Hass",
        "0",
        "ipfs://QmSeedBatch001",
        "19340400",
        "-102364600"
      ],
      "transaction": {
        "from": "0xa98100e028ffe19cbc1e9bf9bcf33458e064892a",
        "to": "0x1deed2c283b950439e1afe726aeb7ee257e6aa41",
        "gas": "0xa5f50",
        "value": "0x0",
        "input": "0xe7d5d63e0000000000000000000000000000000000000000000000000000000000000000000000000000000000000000000000000000000000000000000000000007a12000000000000000000000000000000000000000000000000000000000000000e0000000000000000000000000000000000000000000000000000000000000000000000000000000000000000000000000000000000000000000000000000001200000000000000000000000000000000000000000000000000000000001271c70fffffffffffffffffffffffffffffffffffffffffffffffffffffffff9e60a48000000000000000000000000000000000000000000000000000000000000000448617373000000000000000000000000000000000000000000000000000000000000000000000000000000000000000000000000000000000000000000000015697066733a2f2f516d5365656442617463683030310000000000000000000000",
        "nonce": "0x18",
        "chainId": "0x279f"
      },
      "additionalContracts": [],
      "isFixedGasLimit": false
    },
    {
      "hash": "0x3025aaddef4c71dff0dd34d14a9f9211dc30c5c7900e4cb09e0fa1b355d9327b",
      "transactionType": "CALL",
      "contractName": null,
      "contractAddress": "0x1deed2c283b950439e1afe726aeb7ee257e6aa41",
      "function": "registerBatch(uint8,uint256,string,uint8,string,int256,int256)",
      "arguments": [
        "1",
        "800000",
        "Hass",
        "0",
        "ipfs://QmPeelBatch001",
        "19345000",
        "-102370000"
      ],
      "transaction": {
        "from": "0xa98100e028ffe19cbc1e9bf9bcf33458e064892a",
        "to": "0x1deed2c283b950439e1afe726aeb7ee257e6aa41",
        "gas": "0xa5f50",
        "value": "0x0",
        "input": "0xe7d5d63e000000000000000000000000000000000000000000000000000000000000000100000000000000000000000000000000000000000000000000000000000c350000000000000000000000000000000000000000000000000000000000000000e0000000000000000000000000000000000000000000000000000000000000000000000000000000000000000000000000000000000000000000000000000001200000000000000000000000000000000000000000000000000000000001272e68fffffffffffffffffffffffffffffffffffffffffffffffffffffffff9e5f530000000000000000000000000000000000000000000000000000000000000000448617373000000000000000000000000000000000000000000000000000000000000000000000000000000000000000000000000000000000000000000000015697066733a2f2f516d5065656c42617463683030310000000000000000000000",
        "nonce": "0x19",
        "chainId": "0x279f"
      },
      "additionalContracts": [],
      "isFixedGasLimit": false
    },
    {
      "hash": "0x87965aceaf729d6282243fa905697c74211bc0c613990ba962e084763dc14a57",
      "transactionType": "CALL",
      "contractName": null,
      "contractAddress": "0x1deed2c283b950439e1afe726aeb7ee257e6aa41",
      "function": "registerBatch(uint8,uint256,string,uint8,string,int256,int256)",
      "arguments": [
        "2",
        "300000",
        "Mendez",
        "1",
        "ipfs://QmPulpBatch001",
        "19346000",
        "-102380000"
      ],
      "transaction": {
        "from": "0xa98100e028ffe19cbc1e9bf9bcf33458e064892a",
        "to": "0x1deed2c283b950439e1afe726aeb7ee257e6aa41",
        "gas": "0xac56c",
        "value": "0x0",
        "input": "0xe7d5d63e000000000000000000000000000000000000000000000000000000000000000200000000000000000000000000000000000000000000000000000000000493e000000000000000000000000000000000000000000000000000000000000000e0000000000000000000000000000000000000000000000000000000000000000100000000000000000000000000000000000000000000000000000000000001200000000000000000000000000000000000000000000000000000000001273250fffffffffffffffffffffffffffffffffffffffffffffffffffffffff9e5ce2000000000000000000000000000000000000000000000000000000000000000064d656e64657a00000000000000000000000000000000000000000000000000000000000000000000000000000000000000000000000000000000000000000015697066733a2f2f516d50756c7042617463683030310000000000000000000000",
        "nonce": "0x1a",
        "chainId": "0x279f"
      },
      "additionalContracts": [],
      "isFixedGasLimit": false
    },
    {
      "hash": "0x342e1f0cfeb86b73b7d6f992cb76f668faee9397c58fd86632736ae5bb09ce54",
      "transactionType": "CALL",
      "contractName": null,
      "contractAddress": "0x1deed2c283b950439e1afe726aeb7ee257e6aa41",
      "function": "registerBatch(uint8,uint256,string,uint8,string,int256,int256)",
      "arguments": [
        "3",
        "1000000",
        "Criollo",
        "0",
        "ipfs://QmBiomassBatch001",
        "19350000",
        "-102390000"
      ],
      "transaction": {
        "from": "0xa98100e028ffe19cbc1e9bf9bcf33458e064892a",
        "to": "0x1deed2c283b950439e1afe726aeb7ee257e6aa41",
        "gas": "0xa5fbf",
        "value": "0x0",
        "input": "0xe7d5d63e000000000000000000000000000000000000000000000000000000000000000300000000000000000000000000000000000000000000000000000000000f424000000000000000000000000000000000000000000000000000000000000000e00000000000000000000000000000000000000000000000000000000000000000000000000000000000000000000000000000000000000000000000000000012000000000000000000000000000000000000000000000000000000000012741f0fffffffffffffffffffffffffffffffffffffffffffffffffffffffff9e5a71000000000000000000000000000000000000000000000000000000000000000074372696f6c6c6f000000000000000000000000000000000000000000000000000000000000000000000000000000000000000000000000000000000000000018697066733a2f2f516d42696f6d61737342617463683030310000000000000000",
        "nonce": "0x1b",
        "chainId": "0x279f"
      },
      "additionalContracts": [],
      "isFixedGasLimit": false
    },
    {
      "hash": "0xf57d517a9af29bd1bc843b76d89f084d87c97b304b23ca7ccf4bd1bea3830757",
      "transactionType": "CALL",
      "contractName": null,
      "contractAddress": "0x1deed2c283b950439e1afe726aeb7ee257e6aa41",
      "function": "setApprovalForAll(address,bool)",
      "arguments": [
        "0x1d6975d2C0e466928b7dEB47fe48fAD3624A983B",
        "true"
      ],
      "transaction": {
        "from": "0xa98100e028ffe19cbc1e9bf9bcf33458e064892a",
        "to": "0x1deed2c283b950439e1afe726aeb7ee257e6aa41",
        "gas": "0x10d47",
        "value": "0x0",
        "input": "0xa22cb4650000000000000000000000001d6975d2c0e466928b7deb47fe48fad3624a983b0000000000000000000000000000000000000000000000000000000000000001",
        "nonce": "0x1c",
        "chainId": "0x279f"
      },
      "additionalContracts": [],
      "isFixedGasLimit": false
    },
    {
      "hash": "0x6501ae1ee935ffed1a593fb52489bd37e0454bc2aa8e98fb2b4a2672c01b54ef",
      "transactionType": "CALL",
      "contractName": null,
      "contractAddress": "0x1d6975d2c0e466928b7deb47fe48fad3624a983b",
      "function": "createListing(uint256,uint256,address)",
      "arguments": [
        "0",
        "10000000000000000",
        "0x58fe512A24A5d3160a8B161C64623f40d4bD113d"
      ],
      "transaction": {
        "from": "0xa98100e028ffe19cbc1e9bf9bcf33458e064892a",
        "to": "0x1d6975d2c0e466928b7deb47fe48fad3624a983b",
        "gas": "0x4c059",
        "value": "0x0",
        "input": "0x17e96ec60000000000000000000000000000000000000000000000000000000000000000000000000000000000000000000000000000000000000000002386f26fc1000000000000000000000000000058fe512a24a5d3160a8b161c64623f40d4bd113d",
        "nonce": "0x1d",
        "chainId": "0x279f"
      },
      "additionalContracts": [],
      "isFixedGasLimit": false
    },
    {
      "hash": "0x30bbbfbb64752c09b2ee2d851647108f003f9370f98f13843bb4a7b7475e5111",
      "transactionType": "CALL",
      "contractName": null,
      "contractAddress": "0x1d6975d2c0e466928b7deb47fe48fad3624a983b",
      "function": "createListing(uint256,uint256,address)",
      "arguments": [
        "1",
        "5000000000000000",
        "0x58fe512A24A5d3160a8B161C64623f40d4bD113d"
      ],
      "transaction": {
        "from": "0xa98100e028ffe19cbc1e9bf9bcf33458e064892a",
        "to": "0x1d6975d2c0e466928b7deb47fe48fad3624a983b",
        "gas": "0x4cf96",
        "value": "0x0",
        "input": "0x17e96ec600000000000000000000000000000000000000000000000000000000000000010000000000000000000000000000000000000000000000000011c37937e0800000000000000000000000000058fe512a24a5d3160a8b161c64623f40d4bd113d",
        "nonce": "0x1e",
        "chainId": "0x279f"
      },
      "additionalContracts": [],
      "isFixedGasLimit": false
    },
    {
      "hash": "0x7cff83cf4a3a46d430dbf284c8d88f1f52c452c3418eb3c808b12c06bce28d79",
      "transactionType": "CALL",
      "contractName": null,
      "contractAddress": "0x1d6975d2c0e466928b7deb47fe48fad3624a983b",
      "function": "createListing(uint256,uint256,address)",
      "arguments": [
        "2",
        "8000000000000000",
        "0x58fe512A24A5d3160a8B161C64623f40d4bD113d"
      ],
      "transaction": {
        "from": "0xa98100e028ffe19cbc1e9bf9bcf33458e064892a",
        "to": "0x1d6975d2c0e466928b7deb47fe48fad3624a983b",
        "gas": "0x517f7",
        "value": "0x0",
        "input": "0x17e96ec60000000000000000000000000000000000000000000000000000000000000002000000000000000000000000000000000000000000000000001c6bf52634000000000000000000000000000058fe512a24a5d3160a8b161c64623f40d4bd113d",
        "nonce": "0x1f",
        "chainId": "0x279f"
      },
      "additionalContracts": [],
      "isFixedGasLimit": false
    },
    {
      "hash": "0x607be19ba6857273b897dd5638c6df2645dc1acb439a58c3994bd26e6793027c",
      "transactionType": "CALL",
      "contractName": null,
      "contractAddress": "0x1deed2c283b950439e1afe726aeb7ee257e6aa41",
      "function": "transferCustody(uint256,address,string)",
      "arguments": [
        "3",
        "0xfe05914BdFAD80734D55b91015Dd09c6dA0Ae5fB",
        "Test Transfer to Buyer"
      ],
      "transaction": {
        "from": "0xa98100e028ffe19cbc1e9bf9bcf33458e064892a",
        "to": "0x1deed2c283b950439e1afe726aeb7ee257e6aa41",
        "gas": "0x2ae1c",
        "value": "0x0",
        "input": "0x910bc3a10000000000000000000000000000000000000000000000000000000000000003000000000000000000000000fe05914bdfad80734d55b91015dd09c6da0ae5fb0000000000000000000000000000000000000000000000000000000000000060000000000000000000000000000000000000000000000000000000000000001654657374205472616e7366657220746f20427579657200000000000000000000",
        "nonce": "0x20",
        "chainId": "0x279f"
      },
      "additionalContracts": [],
      "isFixedGasLimit": false
    }
  ],
  "receipts": [
    {
      "status": "0x1",
      "cumulativeGasUsed": "0xa5f50",
      "logs": [
        {
          "address": "0x1deed2c283b950439e1afe726aeb7ee257e6aa41",
          "topics": [
            "0xddf252ad1be2c89b69c2b068fc378daa952ba7f163c4a11628f55a4df523b3ef",
            "0x0000000000000000000000000000000000000000000000000000000000000000",
            "0x000000000000000000000000a98100e028ffe19cbc1e9bf9bcf33458e064892a",
            "0x0000000000000000000000000000000000000000000000000000000000000000"
          ],
          "data": "0x",
          "blockHash": "0x4fda1ec11d5da6b18242ba30083191f1c1c363ba046aee3e226054a6ec0342f5",
          "blockNumber": "0xdaffa8",
          "blockTimestamp": "0x699a37ec",
          "transactionHash": "0x9d15b89b0d31ddf95b83bfba2e643803f1a1affa5d5c1857bd83fc22ca585760",
          "transactionIndex": "0x1",
          "logIndex": "0x1",
          "removed": false
        },
        {
          "address": "0x1deed2c283b950439e1afe726aeb7ee257e6aa41",
          "topics": [
            "0xf8e1a15aba9398e019f0b49df1a4fde98ee17ae345cb5f6b5e2c27f5033e8ce7"
          ],
          "data": "0x0000000000000000000000000000000000000000000000000000000000000000",
          "blockHash": "0x4fda1ec11d5da6b18242ba30083191f1c1c363ba046aee3e226054a6ec0342f5",
          "blockNumber": "0xdaffa8",
          "blockTimestamp": "0x699a37ec",
          "transactionHash": "0x9d15b89b0d31ddf95b83bfba2e643803f1a1affa5d5c1857bd83fc22ca585760",
          "transactionIndex": "0x1",
          "logIndex": "0x2",
          "removed": false
        },
        {
          "address": "0x1deed2c283b950439e1afe726aeb7ee257e6aa41",
          "topics": [
            "0x002786320f79c5e23d0a07e721690d1f70f6d11792d5b137ca8df7e75a64441d",
            "0x0000000000000000000000000000000000000000000000000000000000000000",
            "0x000000000000000000000000a98100e028ffe19cbc1e9bf9bcf33458e064892a"
          ],
          "data": "0x0000000000000000000000000000000000000000000000000000000000000000000000000000000000000000000000000000000000000000000000000007a12000000000000000000000000000000000000000000000000000000000000000600000000000000000000000000000000000000000000000000000000000000015697066733a2f2f516d5365656442617463683030310000000000000000000000",
          "blockHash": "0x4fda1ec11d5da6b18242ba30083191f1c1c363ba046aee3e226054a6ec0342f5",
          "blockNumber": "0xdaffa8",
          "blockTimestamp": "0x699a37ec",
          "transactionHash": "0x9d15b89b0d31ddf95b83bfba2e643803f1a1affa5d5c1857bd83fc22ca585760",
          "transactionIndex": "0x1",
          "logIndex": "0x3",
          "removed": false
        }
      ],
      "logsBloom": "0x00000000000000200000000000000000000000000000000000000000000000000000000000000000000000000000000000000000000000000002400000000000000000000000000000000008000000000000000000000000000000000000000000000000020000000000000000000800000000000000000000000010000000000000000000000000000000000000000000010000100000000200000000000000008000000000000000000000000000002000000000000000000000000000008000000002000000000000000000000000000000000000000000000000000020000000000000000400200400000000000000000000000000000000000000000000",
      "type": "0x2",
      "transactionHash": "0x9d15b89b0d31ddf95b83bfba2e643803f1a1affa5d5c1857bd83fc22ca585760",
      "transactionIndex": "0x1",
      "blockHash": "0x4fda1ec11d5da6b18242ba30083191f1c1c363ba046aee3e226054a6ec0342f5",
      "blockNumber": "0xdaffa8",
      "gasUsed": "0xa5f50",
      "effectiveGasPrice": "0x17fb474601",
      "from": "0xa98100e028ffe19cbc1e9bf9bcf33458e064892a",
      "to": "0x1deed2c283b950439e1afe726aeb7ee257e6aa41",
      "contractAddress": null
    },
    {
      "status": "0x1",
      "cumulativeGasUsed": "0xa1620",
      "logs": [
        {
          "address": "0x1deed2c283b950439e1afe726aeb7ee257e6aa41",
          "topics": [
            "0xddf252ad1be2c89b69c2b068fc378daa952ba7f163c4a11628f55a4df523b3ef",
            "0x0000000000000000000000000000000000000000000000000000000000000000",
            "0x000000000000000000000000a98100e028ffe19cbc1e9bf9bcf33458e064892a",
            "0x0000000000000000000000000000000000000000000000000000000000000001"
          ],
          "data": "0x",
          "blockHash": "0xdd0ed210746761eee5cfe0eddb9a0d38ca48fdc70c1599a2da97e9b8b033d5f7",
          "blockNumber": "0xdaffae",
          "blockTimestamp": "0x699a37ef",
          "transactionHash": "0x3025aaddef4c71dff0dd34d14a9f9211dc30c5c7900e4cb09e0fa1b355d9327b",
          "transactionIndex": "0x1",
          "logIndex": "0x1",
          "removed": false
        },
        {
          "address": "0x1deed2c283b950439e1afe726aeb7ee257e6aa41",
          "topics": [
            "0xf8e1a15aba9398e019f0b49df1a4fde98ee17ae345cb5f6b5e2c27f5033e8ce7"
          ],
          "data": "0x0000000000000000000000000000000000000000000000000000000000000001",
          "blockHash": "0xdd0ed210746761eee5cfe0eddb9a0d38ca48fdc70c1599a2da97e9b8b033d5f7",
          "blockNumber": "0xdaffae",
          "blockTimestamp": "0x699a37ef",
          "transactionHash": "0x3025aaddef4c71dff0dd34d14a9f9211dc30c5c7900e4cb09e0fa1b355d9327b",
          "transactionIndex": "0x1",
          "logIndex": "0x2",
          "removed": false
        },
        {
          "address": "0x1deed2c283b950439e1afe726aeb7ee257e6aa41",
          "topics": [
            "0x002786320f79c5e23d0a07e721690d1f70f6d11792d5b137ca8df7e75a64441d",
            "0x0000000000000000000000000000000000000000000000000000000000000001",
            "0x000000000000000000000000a98100e028ffe19cbc1e9bf9bcf33458e064892a"
          ],
          "data": "0x000000000000000000000000000000000000000000000000000000000000000100000000000000000000000000000000000000000000000000000000000c350000000000000000000000000000000000000000000000000000000000000000600000000000000000000000000000000000000000000000000000000000000015697066733a2f2f516d5065656c42617463683030310000000000000000000000",
          "blockHash": "0xdd0ed210746761eee5cfe0eddb9a0d38ca48fdc70c1599a2da97e9b8b033d5f7",
          "blockNumber": "0xdaffae",
          "blockTimestamp": "0x699a37ef",
          "transactionHash": "0x3025aaddef4c71dff0dd34d14a9f9211dc30c5c7900e4cb09e0fa1b355d9327b",
          "transactionIndex": "0x1",
          "logIndex": "0x3",
          "removed": false
        }
      ],
      "logsBloom": "0x00000000000000200000000000000000000000000000000000000000000000000000000000000000000000000000000000000000000000000002400000040000000000000000000000000008000000000000000000040000000000000000000000000000020000000000000000000800000000000000000000000010000000000000000000000000000000000000000000010000100000000200000000000000008000000000000000000000000000002000000000000000000000000000008000000002000000000000000000000000000000000000000000000000000060000000000000000400200400000000000000000000000000000000000000000000",
      "type": "0x2",
      "transactionHash": "0x3025aaddef4c71dff0dd34d14a9f9211dc30c5c7900e4cb09e0fa1b355d9327b",
      "transactionIndex": "0x1",
      "blockHash": "0xdd0ed210746761eee5cfe0eddb9a0d38ca48fdc70c1599a2da97e9b8b033d5f7",
      "blockNumber": "0xdaffae",
      "gasUsed": "0xa1620",
      "effectiveGasPrice": "0x17fb474601",
      "from": "0xa98100e028ffe19cbc1e9bf9bcf33458e064892a",
      "to": "0x1deed2c283b950439e1afe726aeb7ee257e6aa41",
      "contractAddress": null
    },
    {
      "status": "0x1",
      "cumulativeGasUsed": "0xa7c39",
      "logs": [
        {
          "address": "0x1deed2c283b950439e1afe726aeb7ee257e6aa41",
          "topics": [
            "0xddf252ad1be2c89b69c2b068fc378daa952ba7f163c4a11628f55a4df523b3ef",
            "0x0000000000000000000000000000000000000000000000000000000000000000",
            "0x000000000000000000000000a98100e028ffe19cbc1e9bf9bcf33458e064892a",
            "0x0000000000000000000000000000000000000000000000000000000000000002"
          ],
          "data": "0x",
          "blockHash": "0x7487fdf317eaa0e42265ac3f01f9aeae65e83c2960aa858ef45a4f0d9124fc3b",
          "blockNumber": "0xdaffb4",
          "blockTimestamp": "0x699a37f1",
          "transactionHash": "0x87965aceaf729d6282243fa905697c74211bc0c613990ba962e084763dc14a57",
          "transactionIndex": "0x1",
          "logIndex": "0x1",
          "removed": false
        },
        {
          "address": "0x1deed2c283b950439e1afe726aeb7ee257e6aa41",
          "topics": [
            "0xf8e1a15aba9398e019f0b49df1a4fde98ee17ae345cb5f6b5e2c27f5033e8ce7"
          ],
          "data": "0x0000000000000000000000000000000000000000000000000000000000000002",
          "blockHash": "0x7487fdf317eaa0e42265ac3f01f9aeae65e83c2960aa858ef45a4f0d9124fc3b",
          "blockNumber": "0xdaffb4",
          "blockTimestamp": "0x699a37f1",
          "transactionHash": "0x87965aceaf729d6282243fa905697c74211bc0c613990ba962e084763dc14a57",
          "transactionIndex": "0x1",
          "logIndex": "0x2",
          "removed": false
        },
        {
          "address": "0x1deed2c283b950439e1afe726aeb7ee257e6aa41",
          "topics": [
            "0x002786320f79c5e23d0a07e721690d1f70f6d11792d5b137ca8df7e75a64441d",
            "0x0000000000000000000000000000000000000000000000000000000000000002",
            "0x000000000000000000000000a98100e028ffe19cbc1e9bf9bcf33458e064892a"
          ],
          "data": "0x000000000000000000000000000000000000000000000000000000000000000200000000000000000000000000000000000000000000000000000000000493e000000000000000000000000000000000000000000000000000000000000000600000000000000000000000000000000000000000000000000000000000000015697066733a2f2f516d50756c7042617463683030310000000000000000000000",
          "blockHash": "0x7487fdf317eaa0e42265ac3f01f9aeae65e83c2960aa858ef45a4f0d9124fc3b",
          "blockNumber": "0xdaffb4",
          "blockTimestamp": "0x699a37f1",
          "transactionHash": "0x87965aceaf729d6282243fa905697c74211bc0c613990ba962e084763dc14a57",
          "transactionIndex": "0x1",
          "logIndex": "0x3",
          "removed": false
        }
      ],
      "logsBloom": "0x04000000000000200000000000000000000000000000000000000000000000000000000000000000000000000000000000000000000000000002400000000000000000000000000000000008000000000000000000000000000000000000000000000000020000000000000000000800000000000000000000000010000000000000000000000000000000000000000000010000100000000200000000000000008000000000000000000100000000002000000000000000000000000000008000000002000000000000000000000000000000000000000000000000000020000000000000000400200400000000000000000000008000000000000000000000",
      "type": "0x2",
      "transactionHash": "0x87965aceaf729d6282243fa905697c74211bc0c613990ba962e084763dc14a57",
      "transactionIndex": "0x1",
      "blockHash": "0x7487fdf317eaa0e42265ac3f01f9aeae65e83c2960aa858ef45a4f0d9124fc3b",
      "blockNumber": "0xdaffb4",
      "gasUsed": "0xa7c39",
      "effectiveGasPrice": "0x17fb474601",
      "from": "0xa98100e028ffe19cbc1e9bf9bcf33458e064892a",
      "to": "0x1deed2c283b950439e1afe726aeb7ee257e6aa41",
      "contractAddress": null
    },
    {
      "status": "0x1",
      "cumulativeGasUsed": "0xa168e",
      "logs": [
        {
          "address": "0x1deed2c283b950439e1afe726aeb7ee257e6aa41",
          "topics": [
            "0xddf252ad1be2c89b69c2b068fc378daa952ba7f163c4a11628f55a4df523b3ef",
            "0x0000000000000000000000000000000000000000000000000000000000000000",
            "0x000000000000000000000000a98100e028ffe19cbc1e9bf9bcf33458e064892a",
            "0x0000000000000000000000000000000000000000000000000000000000000003"
          ],
          "data": "0x",
          "blockHash": "0xd97aa8818dd14ac375b000d0ebb97c09bb0dc0b58c97b284f803e349fa40d963",
          "blockNumber": "0xdaffb9",
          "blockTimestamp": "0x699a37f3",
          "transactionHash": "0x342e1f0cfeb86b73b7d6f992cb76f668faee9397c58fd86632736ae5bb09ce54",
          "transactionIndex": "0x1",
          "logIndex": "0x1",
          "removed": false
        },
        {
          "address": "0x1deed2c283b950439e1afe726aeb7ee257e6aa41",
          "topics": [
            "0xf8e1a15aba9398e019f0b49df1a4fde98ee17ae345cb5f6b5e2c27f5033e8ce7"
          ],
          "data": "0x0000000000000000000000000000000000000000000000000000000000000003",
          "blockHash": "0xd97aa8818dd14ac375b000d0ebb97c09bb0dc0b58c97b284f803e349fa40d963",
          "blockNumber": "0xdaffb9",
          "blockTimestamp": "0x699a37f3",
          "transactionHash": "0x342e1f0cfeb86b73b7d6f992cb76f668faee9397c58fd86632736ae5bb09ce54",
          "transactionIndex": "0x1",
          "logIndex": "0x2",
          "removed": false
        },
        {
          "address": "0x1deed2c283b950439e1afe726aeb7ee257e6aa41",
          "topics": [
            "0x002786320f79c5e23d0a07e721690d1f70f6d11792d5b137ca8df7e75a64441d",
            "0x0000000000000000000000000000000000000000000000000000000000000003",
            "0x000000000000000000000000a98100e028ffe19cbc1e9bf9bcf33458e064892a"
          ],
          "data": "0x000000000000000000000000000000000000000000000000000000000000000300000000000000000000000000000000000000000000000000000000000f424000000000000000000000000000000000000000000000000000000000000000600000000000000000000000000000000000000000000000000000000000000018697066733a2f2f516d42696f6d61737342617463683030310000000000000000",
          "blockHash": "0xd97aa8818dd14ac375b000d0ebb97c09bb0dc0b58c97b284f803e349fa40d963",
          "blockNumber": "0xdaffb9",
          "blockTimestamp": "0x699a37f3",
          "transactionHash": "0x342e1f0cfeb86b73b7d6f992cb76f668faee9397c58fd86632736ae5bb09ce54",
          "transactionIndex": "0x1",
          "logIndex": "0x3",
          "removed": false
        }
      ],
      "logsBloom": "0x00000000000000200000000000000000000000000000000000000000000000000000000000000000000000000000000000000000020000000002400000000000000000000000000000000008000000000000000000000000000000000000000000000000020000000000000000000800000000000000000000000010000000000000000000000000000000000000000000010000100000000200000000000000008000000000000000000000000000002000000000800000000000000000408000000002000000000000000000000000000000000000000000000000000020000000000000000400200400000000000000000000000000000000000000000000",
      "type": "0x2",
      "transactionHash": "0x342e1f0cfeb86b73b7d6f992cb76f668faee9397c58fd86632736ae5bb09ce54",
      "transactionIndex": "0x1",
      "blockHash": "0xd97aa8818dd14ac375b000d0ebb97c09bb0dc0b58c97b284f803e349fa40d963",
      "blockNumber": "0xdaffb9",
      "gasUsed": "0xa168e",
      "effectiveGasPrice": "0x17fb474601",
      "from": "0xa98100e028ffe19cbc1e9bf9bcf33458e064892a",
      "to": "0x1deed2c283b950439e1afe726aeb7ee257e6aa41",
      "contractAddress": null
    },
    {
      "status": "0x1",
      "cumulativeGasUsed": "0x24ecb1",
      "logs": [
        {
          "address": "0x1deed2c283b950439e1afe726aeb7ee257e6aa41",
          "topics": [
            "0x17307eab39ab6107e8899845ad3d59bd9653f200f220920489ca2b5937696c31",
            "0x000000000000000000000000a98100e028ffe19cbc1e9bf9bcf33458e064892a",
            "0x0000000000000000000000001d6975d2c0e466928b7deb47fe48fad3624a983b"
          ],
          "data": "0x0000000000000000000000000000000000000000000000000000000000000001",
          "blockHash": "0xbb50e4d510fc8885bafdec50a30cd7f0e3d318e4ecd133e7ac163eb6789462b5",
          "blockNumber": "0xdaffbd",
          "blockTimestamp": "0x699a37f5",
          "transactionHash": "0xf57d517a9af29bd1bc843b76d89f084d87c97b304b23ca7ccf4bd1bea3830757",
          "transactionIndex": "0x6",
          "logIndex": "0x34",
          "removed": false
        }
      ],
      "logsBloom": "0x00000000000000200000000000000000000000000000000000000000000000000000000000000000000000000000000000000000000000000000400000000000000000000000000000000000000000000000000000000000080000000000000002000000000000000000000000000000000000000000000000000000000000000000000000000000000001000000000000010000100000000200000000000000000000000000000000000000000000000000000000000000000000000000000000000000000000000000000000000000000000000040000000000000000000000000200800000000000400000000000000000000000000000000000000000000",
      "type": "0x2",
      "transactionHash": "0xf57d517a9af29bd1bc843b76d89f084d87c97b304b23ca7ccf4bd1bea3830757",
      "transactionIndex": "0x6",
      "blockHash": "0xbb50e4d510fc8885bafdec50a30cd7f0e3d318e4ecd133e7ac163eb6789462b5",
      "blockNumber": "0xdaffbd",
      "gasUsed": "0x10d47",
      "effectiveGasPrice": "0x17fb474601",
      "from": "0xa98100e028ffe19cbc1e9bf9bcf33458e064892a",
      "to": "0x1deed2c283b950439e1afe726aeb7ee257e6aa41",
      "contractAddress": null
    },
    {
      "status": "0x1",
      "cumulativeGasUsed": "0x751d6",
      "logs": [
        {
          "address": "0x1d6975d2c0e466928b7deb47fe48fad3624a983b",
          "topics": [
            "0x492d2294f1b8a982001da6ecb3de3a374ad9c29c9c8d5ad43da90cc50b585136",
            "0x0000000000000000000000000000000000000000000000000000000000000000",
            "0x0000000000000000000000000000000000000000000000000000000000000000",
            "0x000000000000000000000000a98100e028ffe19cbc1e9bf9bcf33458e064892a"
          ],
          "data": "0x000000000000000000000000000000000000000000000000002386f26fc10000000000000000000000000000000000000000000000000000000000000007a120",
          "blockHash": "0xc35f236cf57dc3729cfaa0402f98138c51612c0d50fb487d1721377a1597fd91",
          "blockNumber": "0xdaffc3",
          "blockTimestamp": "0x699a37f7",
          "transactionHash": "0x6501ae1ee935ffed1a593fb52489bd37e0454bc2aa8e98fb2b4a2672c01b54ef",
          "transactionIndex": "0x1",
          "logIndex": "0x1",
          "removed": false
        }
      ],
      "logsBloom": "0x00000000000000200000000000000000000000000080000001000000000000000000000000000000000000000000000000000000000000000000000000000000000000000000000000000000000000000000000000000000000000000000000000000000020000000000000000000800000000000000000000000000000000000000000000000000000000000000000000010000000000000200000000000000000000000000000000000000000000000000010000000000000000000000000000000000000000000000000000000000000000000000000000000000400020000000000000000000200000000000000000008000000000000000000000000000",
      "type": "0x2",
      "transactionHash": "0x6501ae1ee935ffed1a593fb52489bd37e0454bc2aa8e98fb2b4a2672c01b54ef",
      "transactionIndex": "0x1",
      "blockHash": "0xc35f236cf57dc3729cfaa0402f98138c51612c0d50fb487d1721377a1597fd91",
      "blockNumber": "0xdaffc3",
      "gasUsed": "0x751d6",
      "effectiveGasPrice": "0x17fb474601",
      "from": "0xa98100e028ffe19cbc1e9bf9bcf33458e064892a",
      "to": "0x1d6975d2c0e466928b7deb47fe48fad3624a983b",
      "contractAddress": null
    },
    {
      "status": "0x1",
      "cumulativeGasUsed": "0x2bb92e",
      "logs": [
        {
          "address": "0x1d6975d2c0e466928b7deb47fe48fad3624a983b",
          "topics": [
            "0x492d2294f1b8a982001da6ecb3de3a374ad9c29c9c8d5ad43da90cc50b585136",
            "0x0000000000000000000000000000000000000000000000000000000000000001",
            "0x0000000000000000000000000000000000000000000000000000000000000001",
            "0x000000000000000000000000a98100e028ffe19cbc1e9bf9bcf33458e064892a"
          ],
          "data": "0x0000000000000000000000000000000000000000000000000011c37937e0800000000000000000000000000000000000000000000000000000000000000c3500",
          "blockHash": "0x46b953287684c74e2e875c79fe6080c2b56abd367b7ae9c973e21146db0b2d38",
          "blockNumber": "0xdaffc9",
          "blockTimestamp": "0x699a37f9",
          "transactionHash": "0x30bbbfbb64752c09b2ee2d851647108f003f9370f98f13843bb4a7b7475e5111",
          "transactionIndex": "0x3",
          "logIndex": "0x35",
          "removed": false
        }
      ],
      "logsBloom": "0x00000000000000200000000000000000000000000080000001000000000000000000000000000000000000000000000000000000000000000000000000040000000000000000000000000000000000000000000000040000000000000000000000000000000000000000000000000000000000000000000000000000000000000000000000000000000000000000000000010000000000000200000000000000000000000000000000000000000000000000010000000000000000000000000000000000000000000000000000000000000000000000000000000000400040000000000000000000200000000000000000008000000000000000000000000000",
      "type": "0x2",
      "transactionHash": "0x30bbbfbb64752c09b2ee2d851647108f003f9370f98f13843bb4a7b7475e5111",
      "transactionIndex": "0x3",
      "blockHash": "0x46b953287684c74e2e875c79fe6080c2b56abd367b7ae9c973e21146db0b2d38",
      "blockNumber": "0xdaffc9",
      "gasUsed": "0x7604a",
      "effectiveGasPrice": "0x17fb474601",
      "from": "0xa98100e028ffe19cbc1e9bf9bcf33458e064892a",
      "to": "0x1d6975d2c0e466928b7deb47fe48fad3624a983b",
      "contractAddress": null
    },
    {
      "status": "0x1",
      "cumulativeGasUsed": "0x7603a",
      "logs": [
        {
          "address": "0x1d6975d2c0e466928b7deb47fe48fad3624a983b",
          "topics": [
            "0x492d2294f1b8a982001da6ecb3de3a374ad9c29c9c8d5ad43da90cc50b585136",
            "0x0000000000000000000000000000000000000000000000000000000000000002",
            "0x0000000000000000000000000000000000000000000000000000000000000002",
            "0x000000000000000000000000a98100e028ffe19cbc1e9bf9bcf33458e064892a"
          ],
          "data": "0x000000000000000000000000000000000000000000000000001c6bf52634000000000000000000000000000000000000000000000000000000000000000493e0",
          "blockHash": "0xb79661632657402ffae93a9f1d15c0fa33036a08b8d51ef4ed4673c802627c27",
          "blockNumber": "0xdaffd0",
          "blockTimestamp": "0x699a37fc",
          "transactionHash": "0x7cff83cf4a3a46d430dbf284c8d88f1f52c452c3418eb3c808b12c06bce28d79",
          "transactionIndex": "0x1",
          "logIndex": "0x1",
          "removed": false
        }
      ],
      "logsBloom": "0x04000000000000200000000000000000000000000080000001000000000000000000000000000000000000000000000000000000000000000000000000000000000000000000000000000000000000000000000000000000000000000000000000000000000000000000000000000000000000000000000000000000000000000000000000000000000000000000000000010000000000000200000000000000000000000000000000000100000000000000010000000000000000000000000000000000000000000000000000000000000000000000000000000000400000000000000000000000200000000000000000008000008000000000000000000000",
      "type": "0x2",
      "transactionHash": "0x7cff83cf4a3a46d430dbf284c8d88f1f52c452c3418eb3c808b12c06bce28d79",
      "transactionIndex": "0x1",
      "blockHash": "0xb79661632657402ffae93a9f1d15c0fa33036a08b8d51ef4ed4673c802627c27",
      "blockNumber": "0xdaffd0",
      "gasUsed": "0x7603a",
      "effectiveGasPrice": "0x17fb474601",
      "from": "0xa98100e028ffe19cbc1e9bf9bcf33458e064892a",
      "to": "0x1d6975d2c0e466928b7deb47fe48fad3624a983b",
      "contractAddress": null
    },
    {
      "status": "0x1",
      "cumulativeGasUsed": "0x6d8bf",
      "logs": [
        {
          "address": "0x1deed2c283b950439e1afe726aeb7ee257e6aa41",
          "topics": [
            "0x55f940726e9a2689d79bf3c29305c07b4df0134b15e5e06e78894b2d2fea3236",
            "0x0000000000000000000000000000000000000000000000000000000000000003",
            "0x000000000000000000000000a98100e028ffe19cbc1e9bf9bcf33458e064892a",
            "0x000000000000000000000000fe05914bdfad80734d55b91015dd09c6da0ae5fb"
          ],
          "data": "0x00000000000000000000000000000000000000000000000000000000699a37fe",
          "blockHash": "0x54b073d11b824892b4129a061da3e108d3562d0f92cdcafa78b7950f8d0ea7ae",
          "blockNumber": "0xdaffd4",
          "blockTimestamp": "0x699a37fe",
          "transactionHash": "0x607be19ba6857273b897dd5638c6df2645dc1acb439a58c3994bd26e6793027c",
          "transactionIndex": "0x2",
          "logIndex": "0x5",
          "removed": false
        }
      ],
      "logsBloom": "0x00000000000000200000000000000001000000000000000000000000000000000000000000000000000000000000000000000000020000000000400000000000000000000000000000000000000000000000000004000000000000000000000000000000000000000000000000000000000000000000000000000000000000000000000000000000000000000000000000010000100000000200000000000000400000000000000000000000000000000000000000800000000000000000400000000000000000000000000000000020000100000000000400000000000000000000000000000000000400000000000000000000000000000000000000000000",
      "type": "0x2",
      "transactionHash": "0x607be19ba6857273b897dd5638c6df2645dc1acb439a58c3994bd26e6793027c",
      "transactionIndex": "0x2",
      "blockHash": "0x54b073d11b824892b4129a061da3e108d3562d0f92cdcafa78b7950f8d0ea7ae",
      "blockNumber": "0xdaffd4",
      "gasUsed": "0x367c8",
      "effectiveGasPrice": "0x17fb474601",
      "from": "0xa98100e028ffe19cbc1e9bf9bcf33458e064892a",
      "to": "0x1deed2c283b950439e1afe726aeb7ee257e6aa41",
      "contractAddress": null
    }
  ],
  "libraries": [],
  "pending": [],
  "returns": {},
  "timestamp": 1771714560050,
  "chain": 10143,
  "commit": null
}