{
  "transactions": [
    {
      "hash": "0xa6fdbb065cfb81650c7a51c38bdbad8b85f48eddad8e71ef1a1a8cf975c6aff2",
      "transactionType": "CALL",
      "contractName": null,
      "contractAddress": "0xd4934103857df1af9d6760b37df480f92ad952e9",
      "function": "registerBatch(uint8,uint256,string,uint8,string,int256,int256)",
      "arguments": [
        "3",
        "1000000",
        "Criollo",
        "0",
        "ipfs://QmNewTestBatch",
        "19350000",
        "-102390000"
      ],
      "transaction": {
        "from": "0xa98100e028ffe19cbc1e9bf9bcf33458e064892a",
        "to": "0xd4934103857df1af9d6760b37df480f92ad952e9",
        "gas": "0xa1641",
        "value": "0x0",
        "input": "0xe7d5d63e000000000000000000000000000000000000000000000000000000000000000300000000000000000000000000000000000000000000000000000000000f424000000000000000000000000000000000000000000000000000000000000000e00000000000000000000000000000000000000000000000000000000000000000000000000000000000000000000000000000000000000000000000000000012000000000000000000000000000000000000000000000000000000000012741f0fffffffffffffffffffffffffffffffffffffffffffffffffffffffff9e5a71000000000000000000000000000000000000000000000000000000000000000074372696f6c6c6f000000000000000000000000000000000000000000000000000000000000000000000000000000000000000000000000000000000000000015697066733a2f2f516d4e65775465737442617463680000000000000000000000",
        "nonce": "0xf",
        "chainId": "0x279f"
      },
      "additionalContracts": [],
      "isFixedGasLimit": false
    },
    {
      "hash": "0x83a0776ad53614b9c2fcfb13917356014f4580f22f30b9689c6a5860171bae0e",
      "transactionType": "CALL",
      "contractName": null,
      "contractAddress": "0xd4934103857df1af9d6760b37df480f92ad952e9",
      "function": "transferCustody(uint256,address,string)",
      "arguments": [
        "3",
        "0xfe05914BdFAD80734D55b91015Dd09c6dA0Ae5fB",
        "Test Transfer Location"
      ],
      "transaction": {
        "from": "0xa98100e028ffe19cbc1e9bf9bcf33458e064892a",
        "to": "0xd4934103857df1af9d6760b37df480f92ad952e9",
        "gas": "0x2ae1c",
        "value": "0x0",
        "input": "0x910bc3a10000000000000000000000000000000000000000000000000000000000000003000000000000000000000000fe05914bdfad80734d55b91015dd09c6da0ae5fb0000000000000000000000000000000000000000000000000000000000000060000000000000000000000000000000000000000000000000000000000000001654657374205472616e73666572204c6f636174696f6e00000000000000000000",
        "nonce": "0x10",
        "chainId": "0x279f"
      },
      "additionalContracts": [],
      "isFixedGasLimit": false
    }
  ],
  "receipts": [
    {
      "status": "0x1",
      "cumulativeGasUsed": "0x489e6f",
      "logs": [
        {
          "address": "0xd4934103857df1af9d6760b37df480f92ad952e9",
          "topics": [
            "0xddf252ad1be2c89b69c2b068fc378daa952ba7f163c4a11628f55a4df523b3ef",
            "0x0000000000000000000000000000000000000000000000000000000000000000",
            "0x000000000000000000000000a98100e028ffe19cbc1e9bf9bcf33458e064892a",
            "0x0000000000000000000000000000000000000000000000000000000000000003"
          ],
          "data": "0x",
          "blockHash": "0x0acafb6f06902a751aeb31d9dec0b036d39a2907ce964068225031b0f02c4ab2",
          "blockNumber": "0xdaf9d6",
          "blockTimestamp": "0x699a3599",
          "transactionHash": "0xa6fdbb065cfb81650c7a51c38bdbad8b85f48eddad8e71ef1a1a8cf975c6aff2",
          "transactionIndex": "0x3",
          "logIndex": "0x81",
          "removed": false
        },
        {
          "address": "0xd4934103857df1af9d6760b37df480f92ad952e9",
          "topics": [
            "0xf8e1a15aba9398e019f0b49df1a4fde98ee17ae345cb5f6b5e2c27f5033e8ce7"
          ],
          "data": "0x0000000000000000000000000000000000000000000000000000000000000003",
          "blockHash": "0x0acafb6f06902a751aeb31d9dec0b036d39a2907ce964068225031b0f02c4ab2",
          "blockNumber": "0xdaf9d6",
          "blockTimestamp": "0x699a3599",
          "transactionHash": "0xa6fdbb065cfb81650c7a51c38bdbad8b85f48eddad8e71ef1a1a8cf975c6aff2",
          "transactionIndex": "0x3",
          "logIndex": "0x82",
          "removed": false
        },
        {
          "address": "0xd4934103857df1af9d6760b37df480f92ad952e9",
          "topics": [
            "0x002786320f79c5e23d0a07e721690d1f70f6d11792d5b137ca8df7e75a64441d",
            "0x0000000000000000000000000000000000000000000000000000000000000003",
            "0x000000000000000000000000a98100e028ffe19cbc1e9bf9bcf33458e064892a"
          ],
          "data": "0x000000000000000000000000000000000000000000000000000000000000000300000000000000000000000000000000000000000000000000000000000f424000000000000000000000000000000000000000000000000000000000000000600000000000000000000000000000000000000000000000000000000000000015697066733a2f2f516d4e65775465737442617463680000000000000000000000",
          "blockHash": "0x0acafb6f06902a751aeb31d9dec0b036d39a2907ce964068225031b0f02c4ab2",
          "blockNumber": "0xdaf9d6",
          "blockTimestamp": "0x699a3599",
          "transactionHash": "0xa6fdbb065cfb81650c7a51c38bdbad8b85f48eddad8e71ef1a1a8cf975c6aff2",
          "transactionIndex": "0x3",
          "logIndex": "0x83",
          "removed": false
        }
      ],
      "logsBloom": "0x00000000000000200000000000000000000000000000000000000000000000000000000000000000400000000000000000000000020000000002000000000000000000000000000000000008000000000000000000000000000000000000000000000000020000000000000000000800000000000000000000000010000000000000000000000000000000000000000000010000000000000200000000000000008000000000000000000000000000002000000000800000000000000000408000000002000000000000000000000000000000000000000000000000000020000000000000000400200020000000000040000000000000000000000000000000",
      "type": "0x2",
      "transactionHash": "0xa6fdbb065cfb81650c7a51c38bdbad8b85f48eddad8e71ef1a1a8cf975c6aff2",
      "transactionIndex": "0x3",
      "blockHash": "0x0acafb6f06902a751aeb31d9dec0b036d39a2907ce964068225031b0f02c4ab2",
      "blockNumber": "0xdaf9d6",
      "gasUsed": "0xa1641",
      "effectiveGasPrice": "0x17fb474601",
      "from": "0xa98100e028ffe19cbc1e9bf9bcf33458e064892a",
      "to": "0xd4934103857df1af9d6760b37df480f92ad952e9",
      "contractAddress": null
    },
    {
      "status": "0x1",
      "cumulativeGasUsed": "0x367c8",
      "logs": [
        {
          "address": "0xd4934103857df1af9d6760b37df480f92ad952e9",
          "topics": [
            "0x55f940726e9a2689d79bf3c29305c07b4df0134b15e5e06e78894b2d2fea3236",
            "0x0000000000000000000000000000000000000000000000000000000000000003",
            "0x000000000000000000000000a98100e028ffe19cbc1e9bf9bcf33458e064892a",
            "0x000000000000000000000000fe05914bdfad80734d55b91015dd09c6da0ae5fb"
          ],
          "data": "0x00000000000000000000000000000000000000000000000000000000699a359b",
          "blockHash": "0x3eb3438ee0ac1a87c4c5d2ba77908c5236a5f414bb1374743ae08392699274f1",
          "blockNumber": "0xdaf9dc",
          "blockTimestamp": "0x699a359b",
          "transactionHash": "0x83a0776ad53614b9c2fcfb13917356014f4580f22f30b9689c6a5860171bae0e",
          "transactionIndex": "0x1",
          "logIndex": "0x1",
          "removed": false
        }
      ],
      "logsBloom": "0x00000000000000200000000000000001000000000000000000000000000000000000000000000000400000000000000000000000020000000000000000000000000000000000000000000000000000000000000004000000000000000000000000000000000000000000000000000000000000000000000000000000000000000000000000000000000000000000000000010000000000000200000000000000400000000000000000000000000000000000000000800000000000000000400000000000000000000000000000000020000100000000000400000000000000000000000000000000000020000000000040000000000000000000000000000000",
      "type": "0x2",
      "transactionHash": "0x83a0776ad53614b9c2fcfb13917356014f4580f22f30b9689c6a5860171bae0e",
      "transactionIndex": "0x1",
      "blockHash": "0x3eb3438ee0ac1a87c4c5d2ba77908c5236a5f414bb1374743ae08392699274f1",
      "blockNumber": "0xdaf9dc",
      "gasUsed": "0x367c8",
      "effectiveGasPrice": "0x17fb474601",
      "from": "0xa98100e028ffe19cbc1e9bf9bcf33458e064892a",
      "to": "0xd4934103857df1af9d6760b37df480f92ad952e9",
      "contractAddress": null
    }
  ],
  "libraries": [],
  "pending": [],
  "returns": {},
  "timestamp": 1771713948995,
  "chain": 10143,
  "commit": null
}